:100000000C9468020C9423150C9450150C949002D7
:100010000C9490020C9490020C9490020C94900218
:100020000C9490020C9490020C9490020C94900208
:100030000C9490020C9490020C9490020C949002F8
:100040000C9430040C9490020C94720C0C94C00C20
:100050000C9490020C9490020C9490020C949002D8
:100060000C9490020C9490020000000024002700E1
:100070002A0000000000250028002B0000000000DE
:1000800023002600290004040404040404040202DA
:100090000202020203030303030301020408102007
:1000A0004080010204081020010204081020000012
:1000B0000007000201000003040600000000000029
:1000C0000000202050697065204572726F722043D5
:1000D0006F64653A203078004143492045767420AA
:1000E00050697065204572726F723A205069706570
:1000F00020233A004164766572746973696E6720E3
:100100007374617274656400457674204469736326
:100110006F6E6E65637465642F4164766572746991
:1001200073696E672074696D6564206F757400452E
:100130007674206C696E6B20636F6E6E6563746994
:100140006F6E20696E74657276616C206368616E93
:10015000676564004576742050697065205374614A
:100160007475730045767420436F6E6E65637465B5
:10017000640045767420436D6420726573706F6E01
:10018000653A204572726F722E2041726475696EF5
:100190006F20697320696E20616E207768696C65D5
:1001A0002831293B206C6F6F700041434920436F19
:1001B0006D6D616E64200041647665727469736967
:1001C0006E672073746172746564004576742044B0
:1001D000657669636520537461727465643A20536F
:1001E00074616E646279004572726F7220696E206C
:1001F0004143492053657475700045767420446509
:100200007669636520537461727465643A2053653E
:10021000747570000007060000030241D70000005B
:1002200000000000000000000000000000000000CE
:100230000000000000001F06100000000000000089
:10024000040004010100000600009000000000000E
:10025000000000000000001F06101C00020000004B
:10026000000000000000000000000000000010007E
:10027000000010039001FF001F061038FFFF025816
:100280000005000000000000001400000010000045
:1002900000040000000000000005061054000000EB
:1002A000000000000000000000000000000000004E
:1002B000000000000000000000001F0620000404F1
:1002C00002020001280001001804040505000228AC
:1002D00003010E0300002A04140A001F06201C0A52
:1002E00000032A0001424C4520536869656C640490
:1002F0000405050004280301020500001F0620383C
:10030000012A0604030200052A0101000004040575
:10031000050006280301020700042A06001F062024
:100320005404090800072A04010600120000000A0C
:1003300000040402020008280001011804001F063E
:10034000207004101000092800011E948DF148311E
:1003500094BA754C3E5000003D7104041313001F05
:1003600006208C000A280301040B001E948DF1481E
:100370003194BA754C3E5003003D71441014000096
:100380001F0620A8000B0003020000000000000070
:100390000000000000000000000000000004041342
:1003A000001F0620C413000C280301100D001E942A
:1003B0008DF1483194BA754C3E5002003D711400E5
:1003C00014001F0620E000000D00020200000000E3
:1003D000000000000000000000000000000000001D
:1003E0004614001F0620FC0302000E290201000033
:1003F00004040202000F2800010A18040405050085
:10040000102803001C06211801021100272A0404E9
:10041000090100112A27010A000000000000000065
:1004200000000000001F0640002A000100800400B8
:10043000030000000302000804000B000000020299
:10044000000204000D000F06401C000E2A270100C8
:100450008004001100000000000000000000000007
:1004600000000000000000130650001E948DF148AB
:100470003194BA754C3E5000003D71000000000000
:1004800000000000000000000F06600000000000F7
:10049000000000000000000000000000000000005C
:1004A0000000000000000000000606F000036A449F
:1004B000000000000000000000000000000000003C
:1004C000000000000000000000002C2000002C0EA6
:1004D00011241FBECFEFD8E0DEBFCDBF11E0A0E0FA
:1004E000B1E0E8E2FCE202C005900D92A839B10744
:1004F000D9F714E0A8E9B1E001C01D92AD3DB10704
:10050000E1F714E0C0EDD4E004C02297FE010E94A0
:100510000E16CE3CD107C9F70E9421040C94121686
:100520000C940000FB01DC0102C005900D924150CB
:100530005040D8F70895FB01DC0102C001900D92F4
:1005400041505040D8F70895FC013081918180E0FE
:100550002281422F50E0482B592B6430710544F022
:1005600023818CED91E0632F30E00E9415090895FE
:100570008CED91E0632F0E9490090895FC01808129
:10058000882331F461507040CF0101960E94A4028B
:1005900008950F931F93CF93DF930E94360A882309
:1005A00009F44AC01091B801103208F045C00E9409
:1005B000120AE12FF0E0E856FE4F80831F5F109390
:1005C000B801EBCFFE01E856FE4F80818F3F91F5D9
:1005D000F901E856FE4F80818F3F61F5DE01A65696
:1005E000BE4F8C91082F10E02396CE01800F911FF3
:1005F0002397841795076CF5AC0148565E4FFD01B3
:1006000020E030E003C08191280F311DE417F50789
:10061000D0F33070FA01808190E02817390729F46F
:10062000CD010196B8010E94BE029E012C5F3F4F92
:10063000200F311FE90102C0C0E0D0E09E012F5F12
:100640003F4F8091B801482F50E0241735070CF434
:10065000B9CFC417D507B4F4DE01A856BE4F20E0C9
:1006600030E007C0F901E856FE4F8D9180832F5F7F
:100670003F4FC9018C0F9D1F841795079CF3209352
:10068000B80102C01092B801DF91CF911F910F9174
:100690000895BF92CF92DF92EF92FF920F931F9334
:1006A000FC01E754FE4F00819CEDE92E91E0F92E0C
:1006B000C701602F0E949C066C01C701602F0E9439
:1006C000FC05B82E8FEF0E94050A8FEF0E94050AE5
:1006D00084E00E94050A802F0E94050A8D2D99272B
:1006E00087FD9A95E82E0E94050A8C2D0E94050A26
:1006F0008B2D0E94050A10E00C5F1F4F0C0D111D81
:100700000B0D111D8E2D800F0E94050A1F910F9158
:10071000FF90EF90DF90CF90BF9008950E94C902A4
:100720000E94390A882351F19091D1018091D20120
:10073000981710F41092D2018091D2018917C8F451
:1007400087E061E00E9455058091D20190E00E940F
:10075000490364EF71E080E090E00E94780487E054
:1007600060E00E94550564EF71E080E090E00E9437
:1007700078048091D2018F5F8093D2010E94880B10
:1007800008951F931092D1011092D20111E08CEDC7
:1007900091E0612F41E00E94CC088F5F9F4F21F1D3
:1007A0008CED91E0612F40E50E9483088CED91E093
:1007B000612F41E420EA0E9432088CED91E0612F24
:1007C00040E052E00E94D4078CED91E0612F42E0BE
:1007D0000E948B078091D101E82FF0E0E754FE4F93
:1007E00010838F5F8093D1011F5F193181F6809153
:1007F000D101823021F485E061E00E9455051F910E
:10080000089585E061E00E94160586E061E00E949F
:10081000160587E061E00E9416050E94280C8CED09
:1008200091E040E452E46FE070E022E00E94EE09C3
:1008300068EE73E080E090E00E9478040E94C103BB
:100840000895CF93DF930E94DB040E940104CDEA58
:10085000DCE00E948E032097E1F30E94AD0CF9CFFB
:100860001F920F920FB60F9211242F933F938F93E5
:100870009F93AF93BF938091D7019091D801A0919E
:10088000D901B091DA013091DB010196A11DB11DB2
:10089000232F2D5F2D3720F02D570196A11DB11D5F
:1008A0002093DB018093D7019093D801A093D901C5
:1008B000B093DA018091D3019091D401A091D50138
:1008C000B091D6010196A11DB11D8093D3019093E3
:1008D000D401A093D501B093D601BF91AF919F9160
:1008E0008F913F912F910F900FBE0F901F901895F1
:1008F0009B01AC017FB7F8948091D3019091D40112
:10090000A091D501B091D60166B5A89B05C06F3FF7
:1009100019F00196A11DB11D7FBFBA2FA92F982FE5
:100920008827860F911DA11DB11D62E0880F991FB8
:10093000AA1FBB1F6A95D1F7BC012DC0FFB7F89461
:100940008091D3019091D401A091D501B091D601AD
:10095000E6B5A89B05C0EF3F19F00196A11DB11D9A
:10096000FFBFBA2FA92F982F88278E0F911DA11D89
:10097000B11DE2E0880F991FAA1FBB1FEA95D1F7AE
:10098000861B970B885E9340C8F221503040404050
:10099000504068517C4F211531054105510571F6D4
:1009A0000895019739F0880F991F880F991F0297B2
:1009B0000197F1F70895789484B5826084BD84B579
:1009C000816084BD85B5826085BD85B5816085BD4A
:1009D000EEE6F0E0808181608083E1E8F0E0108263
:1009E000808182608083808181608083E0E8F0E0A4
:1009F000808181608083E1EBF0E08081846080838E
:100A0000E0EBF0E0808181608083EAE7F0E08081C4
:100A10008460808380818260808380818160808324
:100A20008081806880831092C1000895CF93DF9306
:100A3000482F50E0CA0186569F4FFC0134914A5717
:100A40005F4FFA018491882369F190E0880F991F24
:100A5000FC01E859FF4FA591B491FC01EE58FF4FFE
:100A6000C591D491662351F42FB7F8948C91932FAC
:100A7000909589238C93888189230BC0623061F41F
:100A80002FB7F8948C91932F909589238C9388811C
:100A9000832B88832FBF06C09FB7F8948C91832B3C
:100AA0008C939FBFDF91CF910895482F50E0CA01EA
:100AB00082559F4FFC012491CA0186569F4FFC012D
:100AC00094914A575F4FFA013491332309F440C09F
:100AD000222351F1233071F0243028F42130A1F089
:100AE000223011F514C02630B1F02730C1F0243087
:100AF000D9F404C0809180008F7703C0809180007A
:100B00008F7D8093800010C084B58F7702C084B53C
:100B10008F7D84BD09C08091B0008F7703C0809124
:100B2000B0008F7D8093B000E32FF0E0EE0FFF1F49
:100B3000EE58FF4FA591B4912FB7F894662321F496
:100B40008C919095892302C08C91892B8C932FBF17
:100B50000895682F70E0CB0182559F4FFC012491CE
:100B6000CB0186569F4FFC0144916A577F4FFB0192
:100B70009491992319F420E030E03CC0222351F1F4
:100B8000233071F0243028F42130A1F0223011F507
:100B900014C02630B1F02730C1F02430D9F404C09D
:100BA000809180008F7703C0809180008F7D80933B
:100BB000800010C084B58F7702C084B58F7D84BD5E
:100BC00009C08091B0008F7703C08091B0008F7D05
:100BD0008093B000892F90E0880F991F84589F4F11
:100BE000FC01A591B4918C9120E030E0842311F0B8
:100BF00021E030E0C9010895EF92FF921F93CF9357
:100C0000DF93EC01162F862F825D80958883898182
:100C100061E00E94550584E593E06FEF0E94EC0DC2
:100C200084E593E06FEF0E94EC0D84E593E0612F83
:100C30000E94EC0D84E593E064E00E94EC0D84E5F5
:100C400093E062E00E94EC0D84E593E066E20E948E
:100C5000EC0D84E593E062E00E94EC0D84E593E006
:100C600068810E94EC0D80E991E00E94D1048981A5
:100C700060E00E9455058FEF9FEF9F878E871A8255
:100C800006C02F5F2A8388EE93E00E94D10484E59A
:100C900093E00E94820D2A810797ECF52A3088F3B1
:100CA0003AC084E593E00E94B30D182F8B8384E54E
:100CB00093E00E94930D1F3F71F58F3F910559F509
:100CC00084E593E00E94B30D84E593E00E94B30DA8
:100CD00084E593E00E94B30D84E593E00E94B30D98
:100CE000998F888F009729F066277727681B790BE3
:100CF0001CC084E593E00E94B30D8F8384E593E0EC
:100D00000E94B30D8E83F82EEE248F819701280F59
:100D1000311D3F872E8784E593E00E94820D1816CF
:100D200019060CF4BECF6E857F85CB01DF91CF9184
:100D30001F91FF90EF900895EF92FF921F93CF9332
:100D4000DF93EC01162F862F845D8095888389813F
:100D500061E00E94550584E593E06FEF0E94EC0D81
:100D600084E593E06FEF0E94EC0D84E593E0612F42
:100D70000E94EC0D84E593E064E00E94EC0D84E5B4
:100D800093E062E00E94EC0D84E593E064E20E944F
:100D9000EC0D84E593E062E00E94EC0D84E593E0C5
:100DA00068810E94EC0D80E991E00E94D104898164
:100DB00060E00E9455058FEF9FEF9B8B8A8B1A8214
:100DC00006C02F5F2A8388EE93E00E94D10484E559
:100DD00093E00E94820D2A810797ECF52A3088F370
:100DE0003AC084E593E00E94B30D182F8B8384E50D
:100DF00093E00E94930D1F3F71F58F3F910559F5C8
:100E000084E593E00E94B30D84E593E00E94B30D66
:100E100084E593E00E94B30D84E593E00E94B30D56
:100E2000998F888F009729F066277727681B790BA1
:100E30001CC084E593E00E94B30D8D8384E593E0AC
:100E40000E94B30D8C83F82EEE248D819701280F1C
:100E5000311D3B8B2A8B84E593E00E94820D18168E
:100E600019060CF4BECF6A897B89CB01DF91CF9143
:100E70001F91FF90EF9008951F93CF93DF93EC01A4
:100E80001A8206C02F5F2A8388EE93E00E94D10465
:100E900084E593E00E94820D2A81059774F52A303B
:100EA00088F32BC086E061E00E94550584E593E05D
:100EB0000E94B30D182F8B8384E593E00E94930D5D
:100EC0001F3FD9F48F3F9105C1F487E061E00E9494
:100ED000550584E593E00E94B30D84E593E00E94FC
:100EE000B30D84E593E00E94B30D84E593E00E9486
:100EF000B30D9C01998F888F09C084E593E00E940F
:100F0000820D1816190674F22FEF3FEFC901DF9119
:100F1000CF911F910895CF92DF92EF92FF920F939E
:100F20001F937C01D62EC42E862F895E840F809558
:100F3000F7018083818161E00E94550504E513E09B
:100F4000C8016FEF0E94EC0DC8016FEF0E94EC0D1D
:100F5000C8016D2D0E94EC0DC80164E00E94EC0DEB
:100F6000C80163E00E94EC0DC80160E10E94EC0D35
:100F7000C8016C2D0E94EC0DC801F70160810E9430
:100F8000EC0D80E991E00E94D104F701818160E0DD
:100F90000E945505C7010E943C071F910F91FF90C9
:100FA000EF90DF90CF9008959F92AF92BF92CF9233
:100FB000DF92EF92FF920F931F935C01962E7A01BE
:100FC000C52EDD24C7FCDA94862F8A5E840F8C0D33
:100FD0008095F5018083818161E00E94550504E5DB
:100FE00013E0C8016FEF0E94EC0DC8016FEF0E9483
:100FF000EC0DC801692D0E94EC0DC80165E00E944E
:10100000EC0DC80163E00E94EC0DC8016EE00E9487
:10101000EC0D6E2D772767FD7095C8010E94EC0DD1
:101020006C2D772767FD7095C8010E94EC0DC801F3
:10103000F50160810E94EC0D80E991E00E94D104ED
:10104000F501818160E00E945505C5010E943C07C1
:101050001F910F91FF90EF90DF90CF90BF90AF90D6
:101060009F900895BF92CF92DF92EF92FF920F93DD
:101070001F937C01D62EC42EB22E862F8B5E840F3A
:10108000820F8095F7018083818161E00E94550580
:1010900004E513E0C8016FEF0E94EC0DC8016FEF8B
:1010A0000E94EC0DC8016D2D0E94EC0DC80166E098
:1010B0000E94EC0DC80163E00E94EC0DC8016CE0D9
:1010C0000E94EC0DC8016C2D0E94EC0DC8016B2D27
:1010D0000E94EC0DC801F70160810E94EC0D80E9CF
:1010E00091E00E94D104F701818160E00E945505E2
:1010F000C7010E943C071F910F91FF90EF90DF9076
:10110000CF90BF900895CF92DF92EF92FF920F930E
:101110001F937C01D62EC42E862F8E5E840F809561
:10112000F7018083818161E00E94550504E513E0A9
:10113000C8016FEF0E94EC0DC8016FEF0E94EC0D2B
:10114000C8016D2D0E94EC0DC80164E00E94EC0DF9
:10115000C80163E00E94EC0DC8016BE00E94EC0D39
:10116000C8016C2D0E94EC0DC801F70160810E943E
:10117000EC0D80E991E00E94D104F701818160E0EB
:101180000E945505C7010E943C071F910F91FF90D7
:10119000EF90DF90CF900895CF92DF92EF92FF9281
:1011A0000F931F937C01D62EC42E862F805E840F52
:1011B0008095F7018083818161E00E94550504E5F7
:1011C00013E0C8016FEF0E94EC0DC8016FEF0E94A1
:1011D000EC0DC8016D2D0E94EC0DC80164E00E9469
:1011E000EC0DC80163E00E94EC0DC80169E10E94AA
:1011F000EC0DC8016C2D0E94EC0DC801F701608157
:101200000E94EC0D80E991E00E94D104F7018181F8
:1012100060E00E945505C7010E943C071F910F9195
:10122000FF90EF90DF90CF9008955F926F927F9242
:101230008F929F92AF92BF92CF92DF92EF92FF92E6
:101240000F931F933C01562E7A016901A52EBB24F2
:10125000A7FCBA94832E992487FC9A94862F885DE4
:10126000840F8A0D820F880D8095F3018083818120
:1012700061E00E94550504E513E0C8016FEF0E948C
:10128000EC0DC8016FEF0E94EC0DC801652D0E94A6
:10129000EC0DC80167E00E94EC0DC80163E00E94FC
:1012A000EC0DC8016EE10E94EC0D6E2D772767FDF5
:1012B0007095C8010E94EC0D6A2D772767FD709527
:1012C000C8010E94EC0D6C2D772767FD7095C80151
:1012D0000E94EC0D682D772767FD7095C8010E946C
:1012E000EC0DC801F30160810E94EC0D80E991E0F2
:1012F0000E94D104F301818160E00E945505C30181
:101300000E943C071F910F91FF90EF90DF90CF90CC
:10131000BF90AF909F908F907F906F905F90089557
:101320009F92AF92BF92CF92DF92EF92FF920F9374
:101330001F935C01962E7A01C52EDD24C7FCDA943A
:10134000862F8A5D840F8C0D8095F50180838181C5
:1013500061E00E94550504E513E0C8016FEF0E94AB
:10136000EC0DC8016FEF0E94EC0DC801692D0E94C1
:10137000EC0DC80165E00E94EC0DC80163E00E941D
:10138000EC0DC8016EE10E94EC0D6E2D772767FD14
:101390007095C8010E94EC0D6C2D772767FD709544
:1013A000C8010E94EC0DC801F50160810E94EC0D9E
:1013B00080E991E00E94D104F501818160E00E9402
:1013C0005505C5010E943C071F910F91FF90EF90BA
:1013D000DF90CF90BF90AF909F900895EF92FF92D3
:1013E0000F931F937A018B01FC012183822F61E00F
:1013F0000E94160584E593E0B801A7010E94FB0C4A
:101400001F910F91FF90EF9008959091F601903405
:1014100041F0E92FF0E0E859FD4F80839F5F909302
:10142000F601089540913802442319F42FEF3FEF5D
:101430001BC080917601909177018753924031F4DF
:1014400087EF91E09093770180937601E0917601A8
:10145000F09177018191282F30E0F0937701E093AC
:101460007601415040933802C901089580913802B5
:1014700008958091CA0208958AE392E068EA72E0D2
:101480000E940113882309F442C18091AA0288387E
:1014900009F48BC0893880F4843809F44FC085384A
:1014A00020F4813809F033C11AC0853809F46DC0C1
:1014B000863809F02CC197C08A3809F4DAC08A3816
:1014C00008F48CC08C3821F08D3809F020C1F0C0B0
:1014D000ACEAB2E020E030E047EF51E0C2C08091DA
:1014E000AD0280934D028091AB02823021F08330B7
:1014F00009F00DC112C084E593E06AEF71E00E942B
:10150000EF0E8AE392E00E945E10029709F4FFC09A
:1015100084E593E067EE71E07BC084E593E06BECDB
:1015200071E00E94EF0E84EB90E060E570E00E94B5
:10153000B61384E593E067EB71E06AC08091AC027A
:101540008823A9F084E593E06AEA71E00E94AC0E7A
:1015500084E593E06091AB0240E150E00E94A40F6B
:1015600084E593E062E771E00E94EF0EFFCF809187
:10157000AB02893009F0CBC08AE392E064E04DEA27
:1015800052E029E00E94D713089581E08093CA02B7
:1015900084E593E064E671E00E94EF0E80914D02D5
:1015A000809350020E941814089584E593E064E546
:1015B00071E00E94EF0E8AE392E063E00E94ED1278
:1015C000882309F4A4C08091CB02882309F09FC02E
:1015D0000E94631381E08093CB02089584E593E039
:1015E0006FE271E015C01092CA0281E08093390267
:1015F00084E593E068E071E00E94EF0E84EB90E0F8
:1016000060E071E00E94B61384E593E064EF70E05F
:101610000E94EF0E089580913802803409F477C05B
:1016200080917801909179018753924021F45093F1
:10163000790140937801E0917801F09179018D91E1
:101640008083809138028F5F809338028091780187
:1016500090917901019690937901809378012F5FA1
:101660003F4F8091A90290E00297281739079CF21A
:1016700008958091AB0290915002890F809350029F
:1016800084E593E060E071E00E94151084E593E04A
:1016900069E171E00E94151084E593E060915002C9
:1016A0004AE050E00E94A40F81E08093390208953F
:1016B00084E593E068ED70E00E94AC0E84E593E071
:1016C0006091AB024AE050E00E94920F84E593E003
:1016D00062EC70E00E94AC0E84E593E06091AC0295
:1016E00040E150E00E94A40F809150028F5F8093F0
:1016F000500284E593E069E171E00E94151084E5F1
:1017000093E0609150024AE050E00E94A40F0895D7
:101710001F938AE392E063E00E94ED12882309F4AC
:1017200093C08091F601882309F48EC010E045C073
:1017300068597D4F83E044E10E9471138823A9F02A
:1017400084E593E061E371E00E94151084E593E085
:1017500064E170E04AE050E00E94021084E593E00A
:1017600063E571E00E94151006C084E593E068E52A
:1017700071E00E9418108091F60184518093F60167
:101780008091500281508093500284E593E069E19A
:1017900071E00E94151084E593E0609150024AE0E8
:1017A00050E00E94A40F1092390202C00E943C0A2D
:1017B000809139028823D1F31C5E4091F601612F9C
:1017C00070E0453108F0B4CF68597D4F83E00E9446
:1017D00071138823A9F084E593E061E371E00E942E
:1017E000151084E593E06091F6014AE050E00E9414
:1017F000920F84E593E063E571E00E94151006C046
:1018000084E593E068E571E00E9418101092F601FB
:101810008091500281508093500284E593E069E109
:1018200071E00E94151084E593E0609150024AE057
:1018300050E00E94A40F1092390202C00E943C0A9C
:10184000809139028823D1F30E943C0A1F910895A8
:101850000F931F9306E412E08AE791E0909347020A
:101860008093460284E08093480284E192E0909362
:101870004A028093490285E180934B020C5010404C
:1018800091E0F80190838091860180933B028091E2
:10189000870180933C028BE080933D028CE0809333
:1018A0003E028DE080933F0285E0809340028FEFFF
:1018B000809341028093420280934302109244023B
:1018C0009093450281E00E94FE12C8010E94871495
:1018D00064E670E080E090E00E9478041F910F9130
:1018E000089508951F920F920FB60F9211242F930F
:1018F0003F934F938F939F93EF93FF938091C000FB
:1019000082FD1DC04091C60020910C0330910D0353
:101910002F5F3F4F2F73307080910E0390910F0314
:101920002817390771F0E0910C03F0910D03E4538F
:10193000FD4F408330930D0320930C0302C0809130
:10194000C600FF91EF919F918F914F913F912F9101
:101950000F900FBE0F901F901895E0916003F091CB
:101960006103E05CFF4F8191919120813181821B65
:10197000930B8F739070892B11F00E94710C089556
:101980001F920F920FB60F9211242F933F938F93B4
:101990009F93EF93FF9320915003309151038091D7
:1019A0005203909153032817390731F48091C100F5
:1019B0008F7D8093C10014C0E0915203F0915303D6
:1019C000E05FFC4F20818091520390915303019678
:1019D0008F73907090935303809352032093C600AB
:1019E000FF91EF919F918F913F912F910F900FBE9B
:1019F0000F901F901895AF92BF92DF92EF92FF92D7
:101A00000F931F93CF93DF93EC017A018B01DD24B9
:101A1000403081EE580780E0680780E0780711F0D9
:101A2000DD24D39491E0A92EB12CEC89FD89DD2031
:101A300069F0C50108A002C0880F991F0A94E2F757
:101A4000808360E079E08DE390E005C0108260E87B
:101A500074E88EE190E0A80197010E94EA152150F8
:101A6000304040405040569547953795279580E146
:101A70002030380720F0DD2011F0DD24D6CFE889B2
:101A8000F9893083EA89FB89208319A2EE89FF89CD
:101A9000408121E030E0C9010C8C02C0880F991F01
:101AA0000A94E2F7482B4083EE89FF894081C901FF
:101AB0000D8C02C0880F991F0A94E2F7482B4083CF
:101AC000EE89FF894081C9010E8C02C0880F991FE1
:101AD0000A94E2F7482B4083EE89FF8980810F8CBE
:101AE00002C0220F331F0A94E2F720952823208397
:101AF000DF91CF911F910F91FF90EF90DF90BF90FA
:101B0000AF900895DC011C96ED91FC911D97E05C6F
:101B1000FF4F2191319180819181281B390B2F73C7
:101B20003070C9010895DC011C96ED91FC911D9760
:101B3000E05CFF4F20813181E054F040DF01AE5B7B
:101B4000BF4F8D919C9111972817390719F42FEFEA
:101B50003FEF07C08D919C91E80FF91F8081282FDE
:101B600030E0C9010895DC011C96ED91FC911D97B0
:101B7000E05CFF4F20813181E054F040DF01AE5B3B
:101B8000BF4F8D919C9111972817390719F42FEFAA
:101B90003FEF10C08D919C911197E80FF91F2081A4
:101BA0008D919C91119701968F73907011969C93D3
:101BB0008E9330E0C9010895DC0191968C91919744
:101BC000882339F05496ED91FC915597808186FFDA
:101BD000F9CF91961C920895CF93DF93EC01EE8597
:101BE000FF85E05CFF4F20813181E054F0402F5FA2
:101BF0003F4F2F733070DF01AE5BBF4F8D919C91D3
:101C0000119728173907D1F3E05CFF4F808191814C
:101C1000E054F040E80FF91F6083EE85FF85E05C3B
:101C2000FF4F31832083EE89FF89208181E090E09E
:101C30000F8C02C0880F991F0A94E2F7282B20838B
:101C400081E089A3EC89FD8980818064808381E0C3
:101C500090E0DF91CF9108951092570310925603B0
:101C600088EE93E0A0E0B0E080935803909359038E
:101C7000A0935A03B0935B038CE891E090935503D3
:101C8000809354038CEC92E0909361038093600303
:101C900080E193E0909363038093620385EC90E08E
:101CA000909365038093640384EC90E090936703C2
:101CB0008093660380EC90E09093690380936803BF
:101CC00081EC90E090936B0380936A0382EC90E048
:101CD00090936D0380936C0386EC90E090936F0378
:101CE00080936E0384E08093700383E0809371039C
:101CF00087E08093720385E08093730381E0809393
:101D000074030895CF92DF92EF92FF920F931F9387
:101D1000CF93DF937C016B018A01C0E0D0E00FC05C
:101D2000D6016D916D01D701ED91FC910190F0818B
:101D3000E02DC7010995C80FD91F015010400115AA
:101D4000110571F7CE01DF91CF911F910F91FF9097
:101D5000EF90DF90CF900895EF92FF920F931F9333
:101D6000CF93DF937C018B01C0E0D0E0F8010F5FDF
:101D70001F4F6491662359F0D701ED91FC910190BA
:101D8000F081E02DC7010995C80FD91FEFCFCE0113
:101D9000DF91CF911F910F91FF90EF900895EF92F7
:101DA000FF920F931F938C01DC01ED91FC91019048
:101DB000F081E02D6DE009957C01D801ED91FC9159
:101DC0000190F081E02DC8016AE009959C012E0D7B
:101DD0003F1DC9011F910F91FF90EF900895EF9261
:101DE000FF920F931F937C010E94AC0E8C01C701E0
:101DF0000E94CF0E9C01200F311FC9011F910F912E
:101E0000FF90EF900895CF93DF93EC01611571057A
:101E100019F420E030E00FC0DB010D900020E9F75D
:101E20001197A61BB70BE881F9810280F381E02DA1
:101E3000AD0109959C01C901DF91CF9108954F92A1
:101E40005F927F928F929F92AF92BF92CF92DF92DA
:101E5000EF92FF920F931F93DF93CF93CDB7DEB72F
:101E6000A1970FB6F894DEBF0FBECDBF2C01742E24
:101E7000CB01223008F42AE019A231E2C32ED12C82
:101E8000CC0EDD1E822E9924AA24BB24672D752F2B
:101E9000A50194010E94EA1579018A01C801B701E0
:101EA000A50194010E94CB15472D461B0894C1083B
:101EB000D1084A3014F4405D01C0495CF60140830A
:101EC000E114F1040105110521F07E2C5F2DC801FC
:101ED000DDCFC201B6010E94030FA1960FB6F894A0
:101EE000DEBF0FBECDBFCF91DF911F910F91FF904D
:101EF000EF90DF90CF90BF90AF909F908F907F90AA
:101F00005F904F900895DC012115310541F4ED916A
:101F1000FC910190F081E02D642F099508950E94B5
:101F20001F0F0895EF92FF920F931F939A01E62ED1
:101F3000FF2400E010E0B801A7010E94830F1F9169
:101F40000F91FF90EF900895CF92DF92EF92FF9262
:101F50000F931F936C01E62E9A01FF2400E010E01E
:101F6000B801A7010E94830F8C01C6010E94CF0E09
:101F7000080F191FC8011F910F91FF90EF90DF907C
:101F8000CF900895CF92DF92EF92FF920F931F931D
:101F9000CF93DF93EC016A017B012115310541F4F8
:101FA000E881F9810190F081E02D642F09951FC02F
:101FB0002A303105D1F477FF17C0E881F98101900B
:101FC000F081E02D6DE209958C0144275527BA0177
:101FD0004C195D096E097F09CE012AE00E941F0F8E
:101FE0009801280F391F04C02AE00E941F0F9C018E
:101FF000C901DF91CF911F910F91FF90EF90DF907A
:10200000CF900895EF92FF920F931F937B019A0157
:102010000027F7FC0095102FB801A7010E94C20FFE
:102020001F910F91FF90EF9008950E94030F089564
:10203000EF92FF920F931F937C010E94030F8C017C
:10204000C7010E94CF0E080F191FC8011F910F91E1
:10205000FF90EF900895FF920F931F93CF93DF931C
:102060008C01EB0181E2F82E1EC0D8011F96ED9184
:10207000FC9150979F9DC0011124E80FF91F3196E4
:102080004491319750E04E5F5F4F86EA94E0BF0184
:102090000E94920286EA94E00E94F411882341F0A3
:1020A00088818F5F88839881F80181899817E8F289
:1020B000DF91CF911F910F91FF900895AF92BF9242
:1020C000CF92DF92EF92FF920F931F93DF93CF9304
:1020D0000F92CDB7DEB77C01198288E880930300A8
:1020E00000E010E0CC24DD245E010894A11CB11CAA
:1020F00027C09981F7018189981720F4C701B5019C
:102100000E942B100F5F1F4FFFEF0F3F1F07F9F0CB
:10211000C70166EA74E00E940113882389F0809168
:10212000A8048438A1F49091AA04892F81508230A8
:1021300018F0292F30E00DC097EAC92E94E0D92E6F
:10214000F60183818230A9F622E030E002C021E866
:1021500030E0C9010F90CF91DF911F910F91FF9057
:10216000EF90DF90CF90BF90AF900895809384045C
:102170000895FC0120E0DC01AB57BF4FEC57FF4F47
:1021800090818C91981709F421E0822F0895FC0129
:10219000F894789430E0EB57FF4F808190E00196FF
:1021A000837090702291281709F431E0832F0895ED
:1021B000CF93DF93FC01EC57FF4F91918081E5585D
:1021C000F040981711F480E015C081E2989FD0018B
:1021D0001124EB01AE0FBF1F81E20D9009928150D7
:1021E000E1F7EC57FF4F808190E00196837090708B
:1021F000808381E0DF91CF910895DF93CF93CDB7B6
:10220000DEB7A1970FB6F894DEBF0FBECDBFE09149
:102210008204F0918304818160E00E94550586E785
:1022200093E0BE016F5F7F4F0E94D810882311F4A6
:1022300019821A825A815EBD0DB407FEFDCF8EB59C
:10224000809385048B818EBD0DB407FEFDCF4EB506
:1022500040938604552349F0252F30E0842F90E0E9
:102260008217930714F4452F4150842F403208F011
:102270008FE1A7E8B4E0FE013496282F30E02A0F62
:102280003B1F08C080818EBD0DB407FEFDCF8EB50B
:102290008D933196A217B307A9F7E0918204F091CC
:1022A0008304818161E00E94550583B7816083BF0B
:1022B000E0918204F09183048285882339F083853C
:1022C0006BEC72E140E050E00E94ED149091FA0353
:1022D0008091FB03981741F0E0918204F091830410
:1022E000818160E00E94550585E894E0A1960FB6D3
:1022F000F894DEBF0FBECDBFCF91DF9108950F934D
:102300001F93CF93DF93DC01AB01EC01CB57DF4F81
:102310008881282F30E02F5F3F4F890103701070B4
:1023200021503040FB019181AC57BF4F8C91A45894
:10233000B040801711F480E020C0F90185E0EE0F75
:10234000FF1F8A95E1F7E20FF31FEA0FFB1F1082D0
:10235000288181E2289F900111242F5F3F4F2A0F8F
:102360003B1FE92FF0E031964F5F5F4FC901BA0183
:10237000AF010E949B02088381E0DF91CF911F9102
:102380000F9108950F931F93CF93DF93EC01098171
:1023900084E593E0602F4AE050E00E94920F84E5CC
:1023A00093E06EE671E00E94151010E0FE01E10F6F
:1023B000F11D84E593E0618140E150E00E94920FBD
:1023C00084E593E06AEC74E00E94AC0E1F5F011795
:1023D00068F784E593E069EC74E00E94EF0EDF910A
:1023E000CF911F910F9108951F93CF93DF93EC012D
:1023F0008981803210F010E01BC086E793E0BE01B7
:102400000E947F11182F80918404882349F084E56D
:1024100093E061E771E00E941510CE010E94C211A5
:10242000E0918204F0918304818160E00E9455056F
:10243000812FDF91CF911F9108951F93CF93DF9349
:10244000EC018CEF93E00E94C710182F8CEF93E003
:10245000BE010E94D8108823B9F08091840488239B
:1024600049F084E593E063E771E00E941510CE0126
:102470000E94C211112339F0E0918204F09183048B
:1024800082858111E99A81E0DF91CF911F910895B2
:10249000CF93DF93EC011092860490938304809392
:1024A00082040E94D61480E00E94B7148E810E949C
:1024B000C51480E00E94C0141092FA031092FB032E
:1024C000E7E7F3E010821182B19683E0EB3FF80773
:1024D000C9F7109284041092800410928104EDEFE9
:1024E000F3E010821182B19684E0E138F807C9F771
:1024F0008A8162E00E941605898161E00E941605CA
:1025000088858F3F19F060E00E9416058F818F3F0C
:10251000F9F061E00E9416058881813069F48F81AD
:1025200061E00E94550564E670E080E090E00E9462
:1025300078048F8160E00AC08F8161E00E945505B8
:102540008F8160E00E9455058F8161E00E945505F2
:102550008C8160E00E9455058B8160E00E945505EA
:10256000898161E00E9455058D8160E00E945505DA
:102570006EE170E080E090E00E9478048A85882314
:1025800039F08B856BEC72E140E050E00E94ED1475
:10259000DF91CF91089583B78E7F83BF81E00E9442
:1025A00010150E94FD10FC0181818823A9F08CEF99
:1025B00093E0BF010E947F11882309F4FFCF8CEFC5
:1025C00093E00E94C710882339F0E0918204F091D3
:1025D000830482858111E9980895262F26952695F2
:1025E0002695FC01E20FF11D858D90E0677002C019
:1025F000959587956A95E2F7817008950E94B610C7
:1026000008950F931F93CF93DF93EC018B018A857D
:102610008823C1F48A810E94A905892B89F086E765
:1026200093E00E94B910882369F48CEF93E00E9434
:10263000C710882339F4898160E00E94550502C0E3
:102640000E94CB12C8010E941D12282F8823A9F1D5
:10265000F8018281883829F0893811F1863869F5C6
:1026600012C0D801FE017D9690E013968C911397CD
:1026700080831B968C911B9780879F5F1196319664
:10268000983099F71AC0FE017D9680E0108210867E
:102690008F5F31968830D1F71DA68B898E8B0DC048
:1026A000F80183819481988F8F8B858196819A8F91
:1026B000898F878190859C8F8B8F822FDF91CF911F
:1026C0001F910F9108950F931F9307EA14E0C8011B
:1026D0000E949D15C80101970E94F4111F910F914E
:1026E00008951F93DF93CF93CDB7DEB765970FB6ED
:1026F000F894DEBF0FBECDBF582F142F282F30E027
:10270000C901880F991F820F931FE091CF04F091A8
:10271000D004E80FF91F33978181928182309105AF
:1027200011F00497C1F41531B0F459839E012E5F66
:102730003F4FC901412F50E00E949B0287EA94E07D
:10274000BE016F5F7F4F412F0E94A31586EA94E080
:102750000E94F41101C080E065960FB6F894DEBFC8
:102760000FBECDBFCF91DF911F9108950F931F939F
:10277000DF93CF9300D000D0CDB7DEB79A838983A3
:102780007C836B8307EA14E0C801BE016F5F7F4F53
:102790000E948315C80101970E94F4110F900F90B9
:1027A0000F900F90CF91DF911F910F9108951F937C
:1027B000DF93CF93CDB7DEB765970FB6F894DEBF42
:1027C0000FBECDBF122F262F30E0C901880F991FF1
:1027D000820F931FE091CF04F091D004E80FF91F0E
:1027E000339780818130C9F41531B8F469839E0133
:1027F0002E5F3F4FC901BA01412F50E00E949B025A
:1028000087EA94E0BE016F5F7F4F412F0E94B715AA
:1028100086EA94E00E94F41101C080E065960FB64C
:10282000F894DEBF0FBECDBFCF91DF911F91089509
:102830000F931F9307EA14E0C8010E947D15C80199
:1028400001970E94F4111F910F9108950F931F9308
:1028500007EA14E0C8010E949715C80101970E9479
:10286000F4111F910F910895CF93DF93EC018881AC
:10287000813009F049C064E670E080E090E00E9499
:1028800078040E942614CE0166EA74E00E940113C7
:102890008823C9F38091A8048438A9F78091AA04F9
:1028A000833861F484E08093A70481E88093A804CE
:1028B00082E08093A9041092AA040EC0882379F4C0
:1028C00084E08093A70481E88093A80483E0809348
:1028D000A9041092AA0482E08093AB040FC082384E
:1028E00099F484E08093A70481E88093A80481E0B0
:1028F0008093A9041092AA041092AB048CEF93E089
:1029000066EA74E00E947F11DF91CF910895CF9322
:10291000DF93EC01FC017D96A7ECB4E010821086F9
:102920001D92319684E0AF3CB807C1F71092D104F4
:102930001092D5041092D4041092D2041092D304B1
:102940001092D6048C859D859093D0048093CF04FB
:102950008F8598899093D8048093D704CE010E94E4
:102960004812CE010E943414DF91CF91089588233C
:1029700019F48CB5806202C08CB58F7D8CBD089532
:102980009CB5937F982B9CBD08952CB5382F337040
:102990002C7F322B3CBD2DB590E095958795959574
:1029A000879581702E7F822B8DBD08958AE061E02E
:1029B0000E9455058AE061E00E9416058CB5806191
:1029C0008CBD8CB580648CBD8DE061E00E941605E5
:1029D0008BE061E00E9416050895823000F5E82F33
:1029E000F0E0EE0FFF1FE752FB4F718360838823F7
:1029F00019F08130A1F408C0809169008C7F842B8C
:102A000080936900E89A089580916900440F551FEA
:102A1000440F551F837F842B80936900E99A0895A2
:102A2000823080F4882319F0813021F402C0E898C4
:102A300001C0E998E82FF0E0EE0FFF1FE752FB4FCF
:102A40001182108208951F920F920FB60F921124D7
:102A50002F933F934F935F936F937F938F939F93A6
:102A6000AF93BF93EF93FF938091D9049091DA04D1
:102A7000892B29F0E091D904F091DA040995FF91AE
:102A8000EF91BF91AF919F918F917F916F915F91E6
:102A90004F913F912F910F900FBE0F901F9018955F
:102AA0001F920F920FB60F9211242F933F934F93C3
:102AB0005F936F937F938F939F93AF93BF93EF93A6
:102AC000FF938091DB049091DC04892B29F0E09145
:102AD000DB04F091DC040995FF91EF91BF91AF9178
:102AE0009F918F917F916F915F914F913F912F9126
:102AF0000F900FBE0F901F901895FC0181E080830E
:102B000089E081830895FC01DB0185E080838FE00B
:102B1000818311968C91119783838C918283139674
:102B20008C911397858312968C9184830895FC0170
:102B300081E080838EE081830895FC0181E08083C1
:102B400083E181830895DC014E5F4C93425085E11F
:102B500011968C931197FB01819112968C93129789
:102B60001396CD01BF0150E00E949B020895DC0145
:102B70004E5F4C9342508DE011968C931197FB0160
:102B8000819112968C9312971396CD01BF0150E05C
:102B90000E949B020895629FD001739FF001829F63
:102BA000E00DF11D649FE00DF11D929FF00D839FDC
:102BB000F00D749FF00D659FF00D9927729FB00D79
:102BC000E11DF91F639FB00DE11DF91FBD01CF018C
:102BD00011240895A1E21A2EAA1BBB1BFD010DC0F2
:102BE000AA1FBB1FEE1FFF1FA217B307E407F507BD
:102BF00020F0A21BB30BE40BF50B661F771F881F99
:102C0000991F1A9469F760957095809590959B012E
:102C1000AC01BD01CF010895EE0FFF1F0590F491A7
:082C2000E02D0994F894FFCFA8
:102C28004143495F4556545F444154415F435245CF
:102C380044495420202020200044617461204372BC
:102C48006564697420617661696C61626C653A20BB
:102C58000064617461207472616E736D6D697420B3
:102C6800737563636573732120204C656E677468A0
:102C78003A20002020202000646174612074726171
:102C88006E736D6D6974206661696C202100203A4D
:102C9800004300204500F701F7010180000108000A
:102CA800010200018000090800000000EC0D820EFE
:082CB800820DB30D930DDC0D3C
:00000001FF
